:060000000C9445000C9475
:1000060072000C9400000C9400000C9400000C94F8
:1000160000000C9400000C947D000C9400000C94DD
:1000260000000C9400000C9400000C9400000C944A
:1000360000000C9400000C9400000C9400000C943A
:1000460000000C9400000C9400000C940000102793
:10005600E80364000A00010000100001100001001E
:10006600010054696D6572302056616C75653A20E1
:100076002564000080C001000200660002006002E4
:100086007A000000F894EE27ECBBF1E0FBBFEBBF73
:10009600E5BF8DE0A2E0BB27ED938A95E9F780E006
:1000A60098E0A0E6ED930197E9F7ECE7F0E085919B
:1000B6009591009761F0A591B59105901590BF01B6
:1000C600F00105900D920197E1F7FB01F0CFEFE506
:1000D600EDBFE8E0EEBFC0E6D2E00C948A00EA93FA
:1000E600EFB720FE02C0E89401C0689420F8EFBF85
:1000F600E9911895EA9320FC03C0E4E0E7BB04C04D
:10010600C29B02C0C29801C0C29AE9911895609735
:10011600E0E0E8BBE4E0E7BBEFEFE3BFE0E0E2BF2F
:10012600ECBFEFBDE1E0EEBDE0E0EDBDECBDE7BD4F
:10013600E6BDE1E0EBBDE3EFEABDE0E0E9BDE8BD29
:10014600EBB7E064EBBFE2E0E5BFE0E0E4BFE0E48C
:10015600EABFE0E1E9BFE0E0E6BFA0E10E94750189
:10016600789412B70E942601FE01FA93EA93E8E614
:10017600F0E0FA93EA93E12FFF27662777270E949C
:10018600B80384E00E941C032896E0E0EA93A0E00E
:100196000E941601DE010E945301A4EFB1E00E9405
:1001A6009E03DFCFFFCFFFE0FA95F1F70895AAB3DC
:1001B600AF70AABBD99AD898F6DFDA9AF4DFA9B35A
:1001C600DA98F1DFDA9AEFDFDA98A7FDF5CF08952E
:1001D600A07FAB2BABBBDA9A0E94D600DA980E94BE
:1001E600D6000895AA93D998AAB3A76FAABBBBB3A2
:1001F600BF70A881EDDFA881A295EADFD99A0C9499
:10020600A601DA9A0E94D600E9B3DA980E94D600CF
:10021600E07F08950E94D600F4DFAE2FF2DFD99872
:10022600E295EA2B0895AA930E94DA00E881F0E0AD
:10023600E05AFD4FE081A981AE0F0E94F50059807A
:100246004880229608950E94DA00A2E00E94F500F6
:100256000E94DA00ACE00E94F5000E94DA00A1E0FC
:100266000E94F500E0E04E2E5E2E0895AA93EF93CD
:10027600FF93A8816894AA3019F0E894571430F0D7
:100286004394E0E0EA93A42DCEDF36F053948FDF5B
:10029600D89AA8810E94F500FF91EF910C94A601CF
:1002A600BA93AA931A93A981BA81ED91A983BA83C5
:1002B6001E2FE03019F0A12FD9DFF5CF1881239634
:1002C6000895AA27BB271197F1F70895AA93D998FD
:1002D600AAB3A76FAABBBBB3BF70A8810E94EB00ED
:1002E600D99A31C0AA93DA98D8987880E881E058EC
:1002F600E0936202E881E054E09363020E9469039E
:100306000E9469030E946903DCDFA0E2DFDFD9DF18
:10031600A8E20E946E03A4E00E946E03A5E80E9474
:100326006E03AAB3AF70AABBD99A0E940D01E5303D
:1003360011F0E0E008C00E94DA00A6E00E94F50095
:100346000E942601E1E021960895BA93AA931A9392
:100356000A93AA81BB8112960E94B003309759F185
:10036600AA81BB8114960E94B0038F01309761F079
:100376000230E0E01E0798F0F80131978F01AA815C
:10038600BB811496ED93FC93AA81BB811296ED91E5
:10039600FD913196FE93EE933197AC81A083AA81AD
:1003A600BB810E94B003FF232AF0ED91FD913196A7
:1003B600FE93EE9306C0AA81BB81EFEFFFEFED93AC
:1003C600FC931981088125960895BA93AA932697D6
:1003D6000E94BD0310E0AC85BD85E0E0F0E0ED9342
:1003E600FC93EA89FB893196EA8BFB8B3197E49182
:1003F6002E2FE03009F415C1E12FE03039F4253213
:1004060011F411E002C00E9472030AC1E130A9F49E
:10041600253219F40E94720302C112E040E000E0A6
:100426002D3211F401E0FCC02B3211F44BE2F8C07E
:10043600203211F440E2F4C002C0E23039F450E058
:1004460013E0203311F40068EBC003C0E33009F079
:10045600E7C0203310F02A3308F007C0AAE05A9FFD
:10046600502DE22FE0535E0FDBC0E22FE33649F456
:100476000E947903E889F989A481AA930E947F03DF
:10048600CEC0E33741F40E9479030E9485030E949F
:1004960050031E2F0AC0E03761F40E9479030E94C0
:1004A60085030E945C031E2F086002600F7730E010
:1004B60034C0E43611F0E93611F4046002C0E537C1
:1004C60031F4E4E5F0E0EE83FF8315E00CC0E83597
:1004D60011F4086003C0E83709F0A1C0EEE5F0E0CA
:1004E600EE83FF8314E002FF14C00E9479030E948A
:1004F6008F03AB85AA233AF4EA85FB850E94AC03F9
:10050600EA87FB874DE2403011F01F5F01C00B7F89
:1005160004C00E9479030E948F0300FD11C01517C5
:1005260078F407FF08C002FF04C00B7F242F115088
:1005360001C020E301C020E20E9472035150EFCFB8
:10054600312F01FF17C03030A1F003FF06C0EE8146
:10055600FF812591EE83FF8305C0AE81BF812D917A
:10056600AE83BF830E947203503009F05150315060
:10057600EACF4BC020E3EE81FF810E94B403E887F7
:10058600F987EE81FF813296EE83FF83E885F98550
:10059600AA85BB85AE17BF0750F02F5FA885B98522
:1005A600EA85FB85EA1BFB0BEA87FB87EFCF2A333D
:1005B60028F003FF02C0295F01C0295D04FD1AC0AF
:1005C600213320F4A885B985119709F409C053177A
:1005D60010F000FF01C013C020E207FF0BC020E3AC
:1005E600006102FF07C00B7F4A930E947F035030D1
:1005F60009F051500E947203503009F051503150A9
:10060600A885B985129708F0B5CF00FF08C050300D
:1006160031F05150E0E2EA930E947F03F8CF10E0F8
:10062600E0CEAC85BD850E94B0030E94C4036496EB
:100636000895FF92F82E26970E94BF030E94970303
:10064600309719F4EFEFFFEF23C0DE0116960E94F4
:10065600A8038D010E949703EE83FF83E0E0E887FD
:10066600E987DE011A960E94A8030E94B003FA9356
:10067600EA931A930A93E8EAF1E0FA93EA93DE0121
:100686001A96A3DE9F01AE81BF81E0E0EC93F901EB
:100696000E94C6032A96FF900895BA93AA93A99139
:1006A600B991EE27FF276D91662311F03196FBCFA6
:1006B6000895BA93AA93AA27BB27E991F9910590C1
:1006C600002011F01196FBCFFD0108950E946401F0
:1006D600A0E30C9469010E94F5000C9464012A932E
:1006E600AD85BE85EF85F88909950895E889F9896C
:1006F6003497E88BF98B0895AD85BE85EF85F8892B
:1007060009950895A889B98914960E94B003EE83C5
:10071600FF83AE81BF810895A889B98914960E9486
:10072600B003EA87FB870895DE011C960E94A803A2
:100736000E94B0030895109639F0A8958AEF90E0CC
:100746000197F1F71197C9F708950024AF0DB01D71
:100756000895F195E195F0400895ED91FC9111977A
:1007660008950590F491E02D08957A936A93FA938B
:10077600EA9308955A934A933A932A931A930A93BB
:1007860008955D814C813B812A81198108810895F4
:00000001FF
